:100000000C94E8020C9419030C9419030C94190332
:100010000C9419030C9419030C9419030C941903F0
:100020000C9419030C9419030C9419030C941903E0
:100030000C94610F0C9419030C9419030C9419037C
:100040000C9419030C9419030C9419030C941903C0
:100050000C9419030C9419030C9419030C944A067C
:100060000C9419030C94BE060C9494060C9419037A
:100070000C9419030C9419030C9419030C94190390
:100080000C9419030C9419030C9419030C94190380
:100090000C9419030C9419030C9419030C94190370
:1000A0000C9419030C9419030C9419030C94190360
:1000B0000C9419030C9419030C9419030C94190350
:1000C0000C9419030C9419030C9419030C94190340
:1000D0000C9419030C9419030C9419030C94190330
:1000E0000C9419030C941B030C94AE040C94AC02F6
:1000F0000C9488040C944C010C947B040C946B03BA
:100100000C9493050C946D040C9496040C94B20218
:100110000C9473040C94A0040C9482040C946F024D
:100120000C949A040C94880F0C9477040C947F041C
:100130000C94BD050C9457030C949A020C94B902CC
:100140000C9491050C9492040C94A8050C948C04C6
:100150000C94B2040C94A8040C94A4040C94790399
:100160000C9448030C943F050C943E050C94FE033C
:100170000C94B1030C94AD0400002100240027006E
:100180002A002D00300033000101000004010701A6
:100190000A0100002200250028002B002E0031005B
:1001A000340002010000050108010B0100002000DD
:1001B0002300260029002C002F003200000100003F
:1001C00003010601090105050505070508080808DA
:1001D000020202020A0A08080404040401010101DF
:1001E00001010101030303030303030304070707DA
:1001F0000C0C0C0C0C0C0C0C02020202060606067F
:10020000060606060B0B0B0B0B0B0B0B010210204B
:10021000200808102040102040800201020108043C
:1002200002010102040810204080804020100804D0
:100230000201800402018040201008040201080429
:10024000020101020408102040800102040810206D
:10025000408000000A0B02090C0D0E080703040180
:10026000000000000000000000000000000000008E
:10027000000000000000000000000000000012115B
:10028000100000000000000000000000000000005E
:100290000000000000000000CF93DF9300D01F9209
:1002A0001F92CDB7DEB7E0916402F0916502108134
:1002B000D12CC12C112329F00580F681E02DC080BE
:1002C000D1800E94BB070E94B1077C0180915F0230
:1002D00090916002E816F90608F087C00E94E008D5
:1002E000F0926002E0925F020E94540A00917A024A
:1002F00010917B020FB6F8940F92D8015A96FC9099
:100300005A97FF2009F432C15C964C915C974423C4
:1003100001F150E016968D919C911797840F951FCF
:1003200017969C938E93169714962D913C91159742
:100330008217930738F08D919C91119717969C9393
:100340008E931697F80166817781CE0101960E94FF
:10035000C512FA94D8015A96FC925A9718968C9125
:10036000882339F0C80108960E940C0781110E9469
:100370008E090F900FBEF980F7FCB8CF0C811D815C
:10038000D8011A968D919C91892B21F0C801029673
:100390000E940E080E94B1076C0180915F0290914B
:1003A0006002C816D90610F40E94E008D0926002DC
:1003B000C0925F02EFEFEF0DE93008F097CF0E2EFD
:1003C000000CFF0BD80152969C9152978827E4515C
:1003D000FE4F8F4F0C94BD126F026F02B2029A0251
:1003E000AC026F026F02B2029A02F0926002E092D7
:1003F0005F02112351F0EC14FD0470F00E94540AC6
:10040000B701C6010E94B60871CFE0916202F09177
:100410006302808161E0811160E000917A021091B5
:100420007B020FB6F8940F92D8015D968C915D9780
:100430008F3F11F45D961C92F801868D8F3F09F471
:10044000168E0F900FBED8015A968C915A97811133
:100450003CC05296ED91FC91A0915602B09157028A
:100460001F96FC93EE931E97A0915602B0915702EF
:100470008481958151969C938E93509780915602DA
:1004800090915702A481B5810C9613969C938E93FC
:10049000129780915602909157020C96958384830F
:1004A000E0915602F0915702C8014196958B848BDA
:1004B000F80181898F5F818BC6018E199F096623A0
:1004C00011F08FEF9FEF0E94FE08C8010E94CC0739
:1004D0000E94540A81110ACF0E948E0907CF9160B1
:1004E000F801928BEA80FB80648575856E0D7F1D17
:1004F0009701A601C8010E946808882309F4F6CE76
:10050000D80152968C91529782FF10C01C966D9123
:100510007C916E0D7F1DA601C8010E949208D80132
:100520005096ED91FC91C8011995E0CE8E7FF801AF
:10053000828BF5CF916052969C9352976A817B8112
:100540001D967C936E931C976C0D7D1D9601A601E4
:10055000C8010E946808CACE91FD04C0C8010E946B
:100560001C0CC4CE9E7FF801928BC0CE0F900FBEA4
:100570009ACE80915A02811109C08091BC028230CA
:1005800010F00E948E090E941E04F3CF0FB6F8945B
:100590000F92E0919D02F0919E02C681D781CE011B
:1005A00002960E940E088091E30281508093E3023C
:1005B00080915A02815080935A020F900FBE8F890A
:1005C000988D0E941C0CCE010E941C0CD2CF880F6B
:1005D00011241FBECFEFD1E2DEBFCDBF00E00CBFC4
:1005E00012E0A0E0B2E0EEEAF5E200E00BBF02C0EC
:1005F00007900D92A635B107D9F723E0A6E5B2E042
:1006000001C01D92A239B207E1F712E0C8EED2E0B4
:1006100000E006C021970109802FFE010E94BD1253
:10062000C73ED10780E00807A9F70E942C100C9460
:10063000D5120C940000AF92BF92CF92DF92EF924E
:10064000FF920F931F93CF93DF936C017B018B017C
:10065000040F151FEB015E01AE18BF08C017D107CC
:1006600059F06991D601ED91FC910190F081E02D56
:10067000C6011995892B79F7C501DF91CF911F919B
:100680000F91FF90EF90DF90CF90BF90AF900895C3
:10069000FC01538D448D252F30E0842F90E0821B88
:1006A000930B541710F0CF96089501970895FC010D
:1006B000918D828D981761F0A28DAE0FBF2FB11D65
:1006C0005D968C91928D9F5F9F73928F90E00895BD
:1006D0008FEF9FEF0895FC01918D828D981731F077
:1006E000828DE80FF11D858D90E008958FEF9FEFCB
:1006F0000895FC01918D228D892F90E0805C9F4FA1
:10070000821B91098F739927089584EE92E00E94CD
:10071000790321E0892B09F420E0822F0895FC0160
:10072000A48DA80FB92FB11DA35ABF4F2C91848D52
:1007300090E001968F739927848FA689B7892C93AF
:10074000A089B1898C91837080648C93938D848D02
:10075000981306C00288F389E02D80818F7D808305
:100760000895EF92FF920F931F93CF93DF93EC01C5
:1007700081E0888F9B8D8C8D98131AC0E889F98948
:10078000808185FF15C09FB7F894EE89FF8960834B
:10079000E889F98980818370806480839FBF81E0CC
:1007A00090E0DF91CF911F910F91FF90EF9008950E
:1007B000F62E0B8D10E00F5F1F4F0F731127E02EE9
:1007C0008C8D8E110CC00FB607FCFACFE889F98921
:1007D000808185FFF5CFCE010E948F03F1CFEB8D95
:1007E000EC0FFD2FF11DE35AFF4FF0829FB7F894F5
:1007F0000B8FEA89FB8980818062CFCFCF93DF9313
:10080000EC01888D8823B9F0AA89BB89E889F98928
:100810008C9185FD03C0808186FD0DC00FB607FC5D
:10082000F7CF8C9185FFF2CF808185FFEDCFCE0190
:100830000E948F03E9CFDF91CF91089580E090E08F
:10084000892B29F00E94850381110E94000080E01D
:1008500090E0892B49F080E090E0892B29F00E94FC
:10086000000081110E94000080E090E0892B49F097
:1008700080E090E0892B29F00E94000081110E9405
:10088000000080E090E0892B49F080E090E0892B27
:1008900029F00E94000081110C94000008958150FD
:1008A000823108F05AC0E82FF0E08827E55AFB4F64
:1008B0008F4F0C94BD127B047F046D047304770486
:1008C000AD04820488048C04920496049A04A00463
:1008D000A404AD04A804AE04B204809180008F7714
:1008E000809380000895809180008F7DF9CF809162
:1008F0008000877FF5CF84B58F7784BD089584B558
:100900008F7DFBCF8091B0008F778093B0000895EA
:100910008091B0008F7DF9CF809190008F77809388
:1009200090000895809190008F7DF9CF8091900084
:10093000877FF5CF8091A0008F778093A0000895E6
:100940008091A0008F7DF9CF8091A000877FF5CFA7
:10095000809120018F77809320010895809120015C
:100960008F7DF9CF80912001877FF5CFCF93DF93E3
:10097000282F30E0F901EE5AFD4F8491F901E45F30
:10098000FD4FD491F901EA53FE4FC491CC23A1F05D
:1009900081110E944F04EC2FF0E0EE0FFF1FE45591
:1009A000FE4FA591B491EC91ED2381E090E009F424
:1009B00080E0DF91CF91089580E090E0FACF1F931F
:1009C000CF93DF93282F30E0F901EE5AFD4F849149
:1009D000F901E45FFD4FD491F901EA53FE4FC49150
:1009E000CC23A9F0162F81110E944F04EC2FF0E0C8
:1009F000EE0FFF1FEE56FE4FA591B4918FB7F894FE
:100A0000EC91111108C0D095DE23DC938FBFDF91EC
:100A1000CF911F910895DE2BF8CFCF93DF9390E015
:100A2000FC01E45FFD4F24918A539E4FFC018491A9
:100A30008823D1F090E0880F991FFC01E858FE4F01
:100A4000A591B491FC01EE56FE4FC591D491611170
:100A50000EC09FB7F8948C91E22FE0958E238C9373
:100A60002881E223E8839FBFDF91CF9108958FB75C
:100A7000F894EC91E22BEC938FBFF6CF0895FFCF63
:100A8000FC0101900020E9F73197AF01481B590B99
:100A9000BC0184EE92E00C941B038F929F92AF9264
:100AA000BF920F931F93CF93DF93CDB7DEB7A1977C
:100AB0000FB6F894DEBF0FBECDBF19A2423008F4C6
:100AC0004AE08E010F5D1F4F842E912CB12CA12C7A
:100AD000A50194010E949B12E62FB901CA01EA30D8
:100AE000F4F4E05DD801EE938D01232B242B252B0C
:100AF00079F790E080E0109719F0CD010E94400551
:100B0000A1960FB6F894DEBF0FBECDBFDF91CF9197
:100B10001F910F91BF90AF909F908F900895E95CC7
:100B2000E1CF0C94121261E083E00E940D0561E0B8
:100B300083E00E94DF048FE190E00E942D0C60E0D2
:100B400083E00E94DF048FE190E00E942D0CEFCF44
:100B500061E082E00E940D0561E082E00E94DF0416
:100B60008EE390E00E942D0C60E082E00E94DF04A2
:100B70008EE390E00E942D0CEFCF60E089E00E94B0
:100B80000D05E091F402F091F50282E08083E0919E
:100B9000F002F091F1021082E091F202F091F30282
:100BA0008FEC80831092FC02E091F802F091F90240
:100BB00086E08083E091F602F091F7028081806107
:100BC0008083E091F602F091F70280818860808353
:100BD000E091F602F091F702808180688083E091D5
:100BE000F602F091F70280818F7D808389E00E9478
:100BF000B604892BD9F781E292E00E9440054AE0D1
:100C000060E070E0CB010E944D056EE284EE92E060
:100C10000E94B1034AE060E070E0CB010E944D0504
:100C20004AE060E070E0CB010E944D0589E292E06D
:100C30000E94400586E090E00E942D0CD7CF0F93D4
:100C40001F9310E000E021E040E850E06CE272E029
:100C500083E995E00E942E0E21E040E850E063E336
:100C600072E088EA95E00E942E0E21E040E850E014
:100C70006AE372E08DEB95E00E942E0E21E040E8E1
:100C800050E062E472E08FE395E00E942E0E1F9127
:100C90000F9108951F920F920FB60F9211242F9368
:100CA0003F938F939F93AF93BF93809187029091CF
:100CB0008802A0918902B0918A023091860223E0D5
:100CC000230F2D3758F50196A11DB11D20938602E3
:100CD0008093870290938802A0938902B0938A023E
:100CE0008091820290918302A0918402B09185024A
:100CF0000196A11DB11D8093820290938302A0935F
:100D00008402B0938502BF91AF919F918F913F91E3
:100D10002F910F900FBE0F901F90189526E8230F6C
:100D20000296A11DB11DD2CF1F920F920FB60F9246
:100D300011240BB60F922F933F934F935F936F93B2
:100D40007F938F939F93AF93BF93EF93FF9384EE23
:100D500092E00E948F03FF91EF91BF91AF919F911D
:100D60008F917F916F915F914F913F912F910F9054
:100D70000BBE0F900FBE0F901F9018951F920F92F1
:100D80000FB60F9211240BB60F922F938F939F9350
:100D9000EF93FF93E091F402F091F5028081E091EE
:100DA000FA02F091FB0282FD1DC090818091FD024C
:100DB0008F5F8F732091FE02821741F0E091FD0258
:100DC000F0E0EC51FD4F958F8093FD02FF91EF9184
:100DD0009F918F912F910F900BBE0F900FBE0F9090
:100DE0001F9018958081F2CFE0918D02F0918E02D4
:100DF0008081811107C08FEF9FEF90937F028093D6
:100E00007E020895E0918D02F0918E020580F681B8
:100E1000E02D80819181F1CFCF93DF93DC01159696
:100E2000ED91FC910680F781E02DA489B589868536
:100E3000978520893189EC013D832C83C089D18934
:100E40009B838A83CF010C9611962D913C9112972A
:100E50002817390721F41296DC93CE931197158A3F
:100E6000148A2C9121502C9320915E02211157C09D
:100E7000A285B3858481958126813781EC013D83EC
:100E80002C83C681D7819B838A83CF0102961196DA
:100E90002D913C9112972817390721F41296DC9373
:100EA000CE931197138612862C9121502C93C689CC
:100EB0002091E0022C1710F4C093E00229E02C9F4F
:100EC000E0011124C454DD4F0980DA81C02DD5839F
:100ED000C4834C815D8157834683AC81BD81139669
:100EE0009C938E9312979D838C83A689A29FD00199
:100EF0001124A454BD4FB387A2878C918F5F8C932C
:100F0000A0915602B0915702968956968C918917F6
:100F100030F581E080935D02DF91CF910895A0913B
:100F2000A202B091A302B787A68714962D913C9197
:100F30001597318B208B1496CD91DC9115979B835F
:100F40008A8315969C938E93149781EA92E0958BF1
:100F5000848B8091A1028F5F8093A102D1CF80E02A
:100F6000DBCF0FB6F8940F9280917C0290917D02B6
:100F70000F900FBE089580915E028F5F80935E0296
:100F800008950FB6F8940F92FC01928D0F900FBE4A
:100F900081E0911180E00895EF92FF920F931F93EB
:100FA000CF93DF93EC010FB6F8940F921E8D7C0166
:100FB00081E1E80EF11C01E01116D4F08FEF8E8F65
:100FC0000F900FBE0FB6F8940F921D8D7E0188E032
:100FD000E80EF11C01E01116B4F08FEF8D8F0F9029
:100FE0000FBEDF91CF911F910F91FF90EF90089569
:100FF0008989882319F3C7010E940C078111009386
:101000005D021150D9CF8885882339F3C7010E942A
:101010000C07811100935D021150DDCFCF93DF9358
:10102000FC01A085B1858281938124813581EC0109
:101030003D832C83C481D5819B838A8311968D91B6
:101040009C9112978E179F0721F41296DC93CE93F2
:101050001197118610868C9181508C938C91DF9121
:10106000CF9108950F931F93CF93DF938C01FB01D2
:1010700080819181D80113968F3F9807F1F4E801A0
:10108000AF81B88512968D919C911397938382833B
:10109000EC01FD83EC83B583A4831396FC93EE935C
:1010A000129711870087F80180818F5F8083DF911D
:1010B000CF911F910F910895D90112962D913C91D6
:1010C0001397E9014881598184179507A8F7DACF6A
:1010D000FC0173836283918780874617570790F0DE
:1010E000421B530B8485958548175907C8F4BF01E7
:1010F0006E5F7F4F80916202909163020E9432087E
:1011000080E008954217530718F46217730740F4FC
:10111000BF016E5F7F4F8091640290916502EECFB8
:1011200081E00895EF92FF920F931F93CF93DF9387
:10113000EC018B017A016C857D85600F711F980130
:10114000A701CE010E946808811107C0DF91CF91ED
:101150001F910F91FF90EF9008958C859D85080F4A
:10116000191FE889F989CE011995E5CFEF92FF9211
:101170000F931F93CF93DF938C017B01E091640267
:10118000F09165020580F681E02DC681D781CE0100
:1011900002960E940E088A8982FF0FC0A701B8013B
:1011A000CE010E949208E889F989CE01DF91CF91A2
:1011B0001F910F91FF90EF9019948E7F8A8BF3CF40
:1011C000E0916402F0916502808181110DC08091EF
:1011D0006202909163029093650280936402F0939F
:1011E0006302E093620208950580F681E02D6FEFBF
:1011F0007FEF808191810E94B608E2CFFF920F932A
:101200001F93CF93DF93EC01F62E00917C02109197
:101210007D02809156029091570202960E940E081C
:10122000CF3FDC07E9F5FF20D9F1E0919002F09182
:101230009102A0915602B09157021596FC93EE933D
:101240001497A0915602B091570284819581179608
:101250009C938E9316978091560290915702A48189
:10126000B581029613969C938E93129780915602A5
:1012700090915702029695838483E0915602F091F3
:1012800057028FE892E09387828780918F028F5F69
:1012900080938F02DF91CF911F910F91FF9008955E
:1012A000C00FD11FE0915602F0915702D383C28341
:1012B0006091560270915702C017D10768F480916F
:1012C0008B0290918C026E5F7F4FDF91CF911F91C7
:1012D0000F91FF900C94320880918D0290918E02B4
:1012E0006E5F7F4F0E94320880917E0290917F0254
:1012F000C817D90778F6D0937F02C0937E02CACF71
:10130000FC010396928381832FEF3FEF3483238385
:101310009683858390878783108208950F920FB6F6
:10132000F8940F920BB60F920CB60F921F921124E5
:101330002F923F924F925F926F927F928F929F92E5
:10134000AF92BF92CF92DF92EF92FF920F931F93D3
:101350002F933F934F935F936F937F938F939F93BD
:10136000AF93BF93CF93DF93EF93FF93A091560278
:10137000B09157020DB60D920EB60D9280915E029D
:10138000882321F081E080935D025FC010925D02AE
:10139000A0915602B0915702E0915602F091570287
:1013A0002D913C918789908D82179307A8F08091A9
:1013B0005602909157028091560290915702279AB7
:1013C0002F9A2FEF87EA91E6215080409040E1F775
:1013D00000C000001F9AF5CF2091E00289E001C013
:1013E0002150422F50E0849FF001859FF00D112481
:1013F000E454FD4F9081992399F3A181B281129613
:101400000D90BC91A02DB283A183289FC00111240F
:1014100081549D4FA817B90729F412968D919C917C
:101420009283818389E0849FF001859FF00D1124D0
:10143000E454FD4F0180F281E02D868197819093E5
:101440005702809356022093E002A0915602B09179
:101450005702CD91CDBFDD91DEBFFF91EF91DF91BE
:10146000CF91BF91AF919F918F917F916F915F913C
:101470004F913F912F911F910F91FF90EF90DF902F
:10148000CF90BF90AF909F908F907F906F905F9024
:101490004F903F902F901F900F900CBE0F900BBE5F
:1014A0000F900FBE0F9008958F929F92BF92CF9290
:1014B000DF92EF92FF920F931F93CF93DF930FB6BC
:1014C000F8940F9280915E02815080935E02809129
:1014D0005E02882379F080E00F900FBEDF91CF91FC
:1014E0001F910F91FF90EF90DF90CF90BF909F9052
:1014F0008F9008958091E302882369F3E090A6021B
:10150000F090A702F0E0E0E039E041E08091A10234
:1015100081115EC0EF2B11F00E94F406E0905B0297
:10152000F0905C02E114F10409F47DC189E0D82E49
:10153000CC24C3940FEF1FEF80915E02811161C133
:10154000C0917C02D0917D024E018FEF881A980ADB
:1015500090927D0280927C0281149104B9F4809172
:101560008D0290918E0220918B0230918C023093EB
:101570008E0220938D0290938C0280938B02809137
:1015800061028F5F809361020E94F40680917E0267
:1015900090917F02B12C8816990608F026C1E0913F
:1015A0005602F0915702E689DE9EF0011124E454C0
:1015B000FD4F8081823010F0BB24B39480915D0296
:1015C000811103C0BB2009F425C1C0925D0222C174
:1015D000D7011696ED91FC91A489B589668577852A
:1015E00080899189EB019D838C8380899189EC01AD
:1015F0007B836A83BF01645F7F4F11960D911C91BD
:1016000012970617170721F412969C938E93119741
:10161000158A148A8C9181508C93A285B38584811C
:10162000958166817781EC017D836C83668177810A
:10163000EB019B838A83CF01029611960D911C9139
:1016400012970817190721F412967C936E9311973D
:10165000138612862C9121502C93A6892091E002AA
:101660002A1710F4A093E0023A9FD0011124A45449
:10167000BD4F11960D90BC91A02DB583A4831496F7
:101680006D917C9115977783668314966D917C910B
:101690001597EB019B838A8315969C938E931497E1
:1016A0009689939FD0011124A454BD4FB387A2877C
:1016B0008C918F5F8C93A0915602B09157025696F1
:1016C0008C91981708F422CF40935D021FCFE091D0
:1016D0008D02F0918E020580F681E02D0680F78163
:1016E000E02D828193818816990628F490937F02D9
:1016F00080937E0254CFC285D385848195812681D3
:101700003781DC0115963C932E93149726813781FF
:10171000D90113969C938E931297CF01029649811B
:101720005A814817590711F43A8329831386128680
:10173000288121502883A489B5891097F9F026853E
:10174000378540895189E9015D834C8340895189FE
:10175000EA013B832A8311966D917C9112979F0138
:10176000245F3F4F6217730721F412965C934E93E8
:101770001197158A148A2C9121502C93A6892091B7
:10178000E0022A1710F4A093E002DA9ED00111249F
:10179000A454BD4F11960D90BC91A02DB583A48388
:1017A00014962D913C9115973783268314962D918D
:1017B0003C911597E9019B838A8315969C938E93A0
:1017C000149796899D9DD0011124A454BD4FB387D1
:1017D000A2878C918F5F8C93E0915602F091570213
:1017E0008689981710F0BB24B394E0918D02F09194
:1017F0008E02808181116BCF10937F0200937E0255
:10180000CECE80915B0290915C02019690935C0237
:1018100080935B02D1E0ED1AF10809F08DCE1092B1
:101820005C0210925B0280915D02882309F453CE22
:101830000E948E0981E050CECF93DF93009751F044
:10184000EC010E94BB07CE010E941212DF91CF91E2
:101850000C94540ADF91CF910895CF93DF93EC015C
:101860000E94BB0760E0CE010E94FE080E94540A5D
:10187000811102C00E948E09DF91CF9108950F92CD
:101880000FB6F8940F920BB60F920CB60F921F92F0
:1018900011242F923F924F925F926F927F928F927C
:1018A0009F92AF92BF92CF92DF92EF92FF920F93EF
:1018B0001F932F933F934F935F936F937F938F93D8
:1018C0009F93AF93BF93CF93DF93EF93FF93A09139
:1018D0005602B09157020DB60D920EB60D9213BE80
:1018E00080915E028111F9C080917C0290917D020D
:1018F000019690937D0280937C02009781F5209160
:101900008D0230918E0240918B0250918C02509347
:101910008E0240938D0230938C0220938B02209193
:1019200061022F5F20936102E0918D02F0918E029F
:101930002081211107C02FEF3FEF30937F022093CA
:101940007E020DC0E0918D02F0918E020580F6813D
:10195000E02D2081318130937F0220937E022091FF
:101960007E0230917F028217930710F420E0A1C01D
:1019700020E039E0D32EE0918D02F0918E0230818B
:10198000311107C08FEF9FEF90937F0280937E020B
:1019900090C0E0918D02F0918E020580F681E02DDD
:1019A0000680F781E02D428153818417950728F442
:1019B00050937F0240937E027CC0A285B385448110
:1019C000558166817781EA017D836C8366817781A9
:1019D000EB015B834A83AF014E5F5F4F11960D9120
:1019E0001C9112970417150721F412967C936E939D
:1019F0001197138612863C9131503C93A489B58986
:101A00001097F9F06685778500891189EB011D83B0
:101A10000C8300891189E8017B836A831196ED901C
:101A2000FC901297BF01645F7F4FE616F70621F422
:101A300012961C930E931197158A148A3C9131507B
:101A40003C93A6893091E0023A1710F4A093E0028B
:101A5000DA9ED0011124A454BD4F11960D90BC9173
:101A6000A02DB583A48314966D917C9115977783EF
:101A7000668314966D917C911597EB015B834A8385
:101A800015965C934E93149746894D9DD001112471
:101A9000A454BD4FB387A2873C913F5F3C93E09134
:101AA0005602F09157023689431708F464CF21E0BB
:101AB00062CFE0915602F0915702E689D9E0ED9F9E
:101AC000F0011124E454FD4F8081823008F021E0C0
:101AD00080915D0281110EC00AC080915B029091DD
:101AE0005C02019690935C0280935B026AC02223A1
:101AF00009F467C080915E02882321F081E0809321
:101B00005D025FC010925D02A0915602B091570233
:101B1000E0915602F09157022D913C918789908D6A
:101B200082179307A8F080915602909157028091F6
:101B3000560290915702279A2F9A2FEF87EA91E643
:101B4000215080409040E1F700C000001F9AF5CF7F
:101B50002091E00289E001C02150422F50E0849F93
:101B6000F001859FF00D1124E454FD4F90819923DD
:101B700099F3A181B28112960D90BC91A02DB283F0
:101B8000A183289FC001112481549D4FA817B90734
:101B900029F412968D919C919283818389E0849F90
:101BA000F001859FF00D1124E454FD4F0180F28176
:101BB000E02D86819781909357028093560220935F
:101BC000E002A0915602B0915702CD91CDBFDD91B8
:101BD000DEBFFF91EF91DF91CF91BF91AF919F91C8
:101BE0008F917F916F915F914F913F912F911F91B5
:101BF0000F91FF90EF90DF90CF90BF90AF909F90AC
:101C00008F907F906F905F904F903F902F901F909C
:101C10000F900CBE0F900BBE0F900FBE0F9008954B
:101C2000CF93DF93EC010E94BB07CE010E94761197
:101C3000EC010E94540A209769F4279A2F9A2FEFFB
:101C400080E792E0215080409040E1F700C0000022
:101C50001F9AF5CFCE01DF91CF9108957F928F9299
:101C60009F92AF92BF92CF92DF92EF92FF920F932B
:101C70001F93CF93DF93982EA92E762E872E7A016D
:101C8000B22ECA010E94100E6C01892B09F4F8C013
:101C900088E290E00E94100EEC01892B09F4EDC05F
:101CA000D88ECF8AA70165EA70E0C6010E94CE12E5
:101CB00081E0E81AF108EF89F88DEE0DFF1D672D20
:101CC000782DCE0149969B01285F3F4FDB014D9156
:101CD000BD01DC014D93CD01AB0141505109DA0149
:101CE0004C91442319F06217730781F718A2BE8A3A
:101CF000B9A21AA21B861A861D8A1C8AD987C88790
:101D000084E090E08B1991099D878C87DB8BCA8BCF
:101D100084E09E012D5D3F4FD9011D928A95E9F720
:101D20001FA29082DF011197AC9211971C9211971C
:101D30001C92119780E88C9311971C9211971C921A
:101D400011971C9257971C9211971C92B697F98382
:101D5000E8830115110519F0F801D183C0830FB68E
:101D6000F8940F928091E3028F5F8093E302809159
:101D7000560290915702892B09F091C0D0935702D7
:101D8000C09356028091E302813081F58CEB92E0A2
:101D90000E94800985EC92E00E9480098EEC92E01E
:101DA0000E94800987ED92E00E94800983EB92E017
:101DB0000E9480098AEA92E00E94800981EA92E00A
:101DC0000E94800988E992E00E9480098FE892E0F1
:101DD0000E94800983EB92E090938E0280938D02A3
:101DE0008AEA92E090938C0280938B028091E102C8
:101DF0008F5F8093E102AE898091E0028A1710F430
:101E0000A093E00229E02A9FD0011124A454BD4FE1
:101E100011960D90BC91A02DBD83AC8314968D912D
:101E20009C9115979F838E831496ED91FC91159745
:101E3000CE0102969383828315969C938E9314977A
:101E4000EE89E29FF0011124E454FD4FFB87EA87FD
:101E500080818F5F80830F900FBE8091E202882384
:101E600051F0E0915602F091570296898E899817A9
:101E700010F40E948E0981E004C0C6010E941C0C6F
:101E80008FEFDF91CF911F910F91FF90EF90DF9037
:101E9000CF90BF90AF909F908F907F90089580914A
:101EA000E2028111A3CFE0915602F0915702968988
:101EB0008E89891708F49ACFD0935702C09356029F
:101EC00095CF0E943F0C1895FF920F931F93CF93CD
:101ED000DF93F82E062FC7E0D0E010E061E0802FFE
:101EE0000E94DF048F2D0E94B6040C2E01C0880FC3
:101EF0000A94EAF7182B60E0802F0E94DF042197F4
:101F000068F7812FDF91CF911F910F91FF90089576
:101F1000CF93DF931092E7021092E60288EE93E0EF
:101F2000A0E0B0E08093E8029093E902A093EA0277
:101F3000B093EB028BE092E09093E5028093E40291
:101F400085EC90E09093F1028093F00284EC90E0B5
:101F50009093F3028093F20280EC90E09093F5026C
:101F60008093F40281EC90E09093F7028093F60264
:101F700082EC90E09093F9028093F80286EC90E076
:101F80009093FB028093FA021092FD021092FE02DF
:101F90001092FF02109200038DE192E09093820371
:101FA0008093810310928603109287031092880316
:101FB0001092890380E090E0A0E8BFE380938A0359
:101FC00090938B03A0938C03B0938D0386E380934F
:101FD000830387E38093840361E086E30E940D0519
:101FE00060E0809184030E940D0581E08093850369
:101FF00060E0809183030E94DF04809184030E944B
:10200000B604892BD1F760918303809184030E94E9
:10201000640F60918303809184030E94640F609138
:102020008303809184030E94640FD0E0C0E080911C
:1020300085038C171D0669F060F061E080918303D1
:102040000E94DF0460E0809183030E94DF042196F8
:10205000EECFDF91CF910895789484B5826084BDEE
:1020600084B5816084BD85B5826085BD85B581609C
:1020700085BD80916E00816080936E00109281001A
:1020800080918100826080938100809181008160D5
:102090008093810080918000816080938000809196
:1020A000B10084608093B1008091B0008160809322
:1020B000B0008091910082608093910080919100A6
:1020C0008160809391008091900081608093900066
:1020D0008091A10082608093A1008091A100816025
:1020E0008093A1008091A00081608093A0008091E6
:1020F0002101826080932101809121018160809380
:1021000021018091200181608093200180917A00DB
:10211000846080937A0080917A00826080937A0054
:1021200080917A00816080937A0080917A00806843
:1021300080937A001092C10020910502309106022E
:102140008FEF91E2821B930B909302028093010226
:102150000E941F0600E812E020E040EC50E068E436
:1021600072E089EB92E00E942E0E813009F0B7C038
:102170000FB6F8940F9280917A0290917B02892B8E
:1021800009F04FC08FE692E00E94800986E692E057
:102190000E9480098FE692E090936502809364022A
:1021A00086E692E0909363028093620281E590E07C
:1021B0000E94100EEC01009781F14F96998388835D
:1021C0008AE08B8F85E08C8F0FB6F8940F92888110
:1021D00099812B8D4C8DBC01249F600D711D1124A4
:1021E0007D836C831A8E9B838A832150330B429F9D
:1021F000B001439F700D1124860F971F9F838E831C
:102200008FEF8D8F8E8FCE0108960E948009CE01B0
:1022100041960E9480090F900FBED0937B02C0931D
:102220007A020F900FBE80917A0290917B02892BE7
:1022300009F455C008E712E023E045E550E06DE4FD
:1022400072E08CE491E00E942E0E813009F047C0CC
:10225000F8942FEF3FEF30937F0220937E0280931C
:10226000E20210927D0210927C02A89588E190EC27
:102270000FB6F894A895809360000FBE909360000D
:10228000A0915602B0915702CD91CDBFDD91DEBF36
:10229000FF91EF91DF91CF91BF91AF919F918F917E
:1022A0007F916F915F914F913F912F911F910F916E
:1022B000FF90EF90DF90CF90BF90AF909F908F9066
:1022C0007F906F905F904F903F902F901F900F9056
:1022D0000CBE0F900BBE0F900FBE0F900895809113
:1022E00000020E941F060E941E04FDCF0F931F9341
:1022F000CF93DF938230910510F482E090E0E0917B
:102300009003F091910330E020E0B0E0A0E030973E
:1023100099F42115310509F44AC0281B390B2430E2
:102320003105D8F58A819B816115710589F1FB0121
:1023300093838283FE0111C0408151810281138108
:1023400048175907E0F04817590799F4109761F0BA
:1023500012960C93129713961C933296CF01DF912D
:10236000CF911F910F9108950093900310939103C3
:10237000F4CF2115310551F04217530738F0A90168
:10238000DB019A01BD01DF01F801C1CFEF01F9CFF7
:102390009093910380939003CDCFFE01E20FF31F42
:1023A000819391932250310939832883D7CF20918B
:1023B0008E0330918F03232B41F42091030230913F
:1023C000040230938F0320938E03209101023091F9
:1023D00002022115310541F42DB73EB740910502A7
:1023E00050910602241B350BE0918E03F0918F0370
:1023F000E217F307A0F42E1B3F0B2817390778F0DC
:10240000AC014E5F5F4F2417350748F04E0F5F1F3A
:1024100050938F0340938E03819391939FCFF0E06D
:10242000E0E09CCFCF93DF930097E9F0FC01329777
:1024300013821282A0919003B0919103ED0130E0DC
:1024400020E01097A1F420813181820F931F209109
:102450008E0330918F032817390709F061C0F0937C
:102460008F03E0938E03DF91CF910895EA01CE1799
:10247000DF07E8F54A815B819E0141155105B1F7FF
:10248000E901FB83EA8349915991C40FD51FEC17E9
:10249000FD0761F4808191810296840F951FE90107
:1024A00099838883828193819B838A83F0E0E0E033
:1024B00012968D919C9113970097B9F52D913C91AF
:1024C0001197CD010296820F931F20918E033091B8
:1024D0008F032817390739F6309751F51092910379
:1024E00010929003B0938F03A0938E03BCCFD3833D
:1024F000C28340815181840F951FC817D90761F4A9
:102500004E5F5F4F88819981480F591F51834083E7
:102510008A819B81938382832115310509F0B0CF95
:10252000F0939103E09390039ECFFD01DC01C0CFB7
:1025300013821282D7CFA1E21A2EAA1BBB1BFD0168
:102540000DC0AA1FBB1FEE1FFF1FA217B307E40792
:10255000F50720F0A21BB30BE40BF50B661F771FEA
:10256000881F991F1A9469F76095709580959095CA
:102570009B01AC01BD01CF010895EE0FFF1F881F25
:102580008BBF0790F691E02D1994FB01DC0102C08E
:1025900001900D9241505040D8F70895DC0101C0E0
:0E25A0006D9341505040E0F70895F894FFCF3E
:1025AE000300009203800000000000B1031B0348EB
:1025BE0003FE03790357036B03000000003E0591F1
:1025CE000576616C6F723A20000D0A006C656455D9
:1025DE006E6F006C6564446F7300656E7472616437
:1025EE00610068783731310049444C4500546D72B2
:0625FE002053766300008B
:00000001FF
